{
  "contractName": "BankingContract",
  "abi": [
    {
      "anonymous": false,
      "inputs": [
        {
          "indexed": true,
          "internalType": "uint256",
          "name": "recordId",
          "type": "uint256"
        },
        {
          "indexed": false,
          "internalType": "bytes32",
          "name": "dataHash",
          "type": "bytes32"
        }
      ],
      "name": "RecordHash",
      "type": "event"
    },
    {
      "anonymous": false,
      "inputs": [
        {
          "indexed": true,
          "internalType": "uint256",
          "name": "accountId",
          "type": "uint256"
        },
        {
          "indexed": false,
          "internalType": "string",
          "name": "username",
          "type": "string"
        },
        {
          "indexed": false,
          "internalType": "string",
          "name": "accountNo",
          "type": "string"
        },
        {
          "indexed": false,
          "internalType": "uint256",
          "name": "balance",
          "type": "uint256"
        }
      ],
      "name": "RecordStored",
      "type": "event"
    },
    {
      "anonymous": false,
      "inputs": [
        {
          "indexed": true,
          "internalType": "uint256",
          "name": "recordId",
          "type": "uint256"
        },
        {
          "indexed": false,
          "internalType": "string",
          "name": "username",
          "type": "string"
        },
        {
          "indexed": false,
          "internalType": "string",
          "name": "accountNo",
          "type": "string"
        },
        {
          "indexed": false,
          "internalType": "uint256",
          "name": "balance",
          "type": "uint256"
        }
      ],
      "name": "RecordUpdated",
      "type": "event"
    },
    {
      "inputs": [
        {
          "internalType": "uint256",
          "name": "",
          "type": "uint256"
        }
      ],
      "name": "recordHashes",
      "outputs": [
        {
          "internalType": "bytes32",
          "name": "",
          "type": "bytes32"
        }
      ],
      "stateMutability": "view",
      "type": "function",
      "constant": true
    },
    {
      "inputs": [
        {
          "internalType": "uint256",
          "name": "",
          "type": "uint256"
        }
      ],
      "name": "records",
      "outputs": [
        {
          "internalType": "string",
          "name": "username",
          "type": "string"
        },
        {
          "internalType": "string",
          "name": "password",
          "type": "string"
        },
        {
          "internalType": "string",
          "name": "accountNo",
          "type": "string"
        },
        {
          "internalType": "uint256",
          "name": "balance",
          "type": "uint256"
        }
      ],
      "stateMutability": "view",
      "type": "function",
      "constant": true
    },
    {
      "inputs": [
        {
          "internalType": "uint256",
          "name": "recordId",
          "type": "uint256"
        },
        {
          "internalType": "string",
          "name": "username",
          "type": "string"
        },
        {
          "internalType": "string",
          "name": "password",
          "type": "string"
        },
        {
          "internalType": "string",
          "name": "accountNo",
          "type": "string"
        },
        {
          "internalType": "uint256",
          "name": "balance",
          "type": "uint256"
        }
      ],
      "name": "storeRecord",
      "outputs": [],
      "stateMutability": "nonpayable",
      "type": "function"
    },
    {
      "inputs": [
        {
          "internalType": "uint256",
          "name": "recordId",
          "type": "uint256"
        },
        {
          "internalType": "string",
          "name": "newUsername",
          "type": "string"
        },
        {
          "internalType": "string",
          "name": "newPassword",
          "type": "string"
        },
        {
          "internalType": "string",
          "name": "newAccountNo",
          "type": "string"
        },
        {
          "internalType": "uint256",
          "name": "newBalance",
          "type": "uint256"
        }
      ],
      "name": "updateRecord",
      "outputs": [],
      "stateMutability": "nonpayable",
      "type": "function"
    },
    {
      "inputs": [
        {
          "internalType": "uint256",
          "name": "accountId",
          "type": "uint256"
        }
      ],
      "name": "getRecordHash",
      "outputs": [
        {
          "internalType": "bytes32",
          "name": "",
          "type": "bytes32"
        }
      ],
      "stateMutability": "view",
      "type": "function",
      "constant": true
    },
    {
      "inputs": [],
      "name": "triggerEventManually",
      "outputs": [],
      "stateMutability": "nonpayable",
      "type": "function"
    }
  ],
  "bytecode": "0x608060405234801561001057600080fd5b50610e9c806100206000396000f3fe608060405234801561001057600080fd5b50600436106100625760003560e01c806316096e1c1461006757806334461067146100835780633c60c5c8146100b657806376b03479146100c05780637ddef6e3146100f05780638c4f472f14610120575b600080fd5b610081600480360381019061007c919061086a565b61013c565b005b61009d60048036038101906100989190610841565b61030d565b6040516100ad9493929190610bbf565b60405180910390f35b6100be6104d5565b005b6100da60048036038101906100d59190610841565b610511565b6040516100e79190610ba4565b60405180910390f35b61010a60048036038101906101059190610841565b610529565b6040516101179190610ba4565b60405180910390f35b61013a6004803603810190610135919061086a565b610546565b005b604051806080016040528085815260200184815260200183815260200182815250600080878152602001908152602001600020600082015181600001908051906020019061018b929190610721565b5060208201518160010190805190602001906101a8929190610721565b5060408201518160020190805190602001906101c5929190610721565b5060608201518160030155905050838383836040516020016101ea9493929190610ad6565b6040516020818303038152906040528051906020012060016000878152602001908152602001600020819055506000806000878152602001908152602001600020905084816000019080519060200190610245929190610721565b508381600101908051906020019061025e929190610721565b506000868686856040516020016102789493929190610b18565b604051602081830303815290604052805190602001209050867fc87dfe9ab8dae3507e0632fc69ee9b0002fac2bb6b33cc2a8d0393c19a4052ca826040516102c09190610ba4565b60405180910390a2867ff8553e29cd0cf9bfd617ab4b6f118662191f74b4e51d0dd5e7cefe39a51de88d8786866040516102fc93929190610c19565b60405180910390a250505050505050565b600060205280600052604060002060009150905080600001805461033090610da4565b80601f016020809104026020016040519081016040528092919081815260200182805461035c90610da4565b80156103a95780601f1061037e576101008083540402835291602001916103a9565b820191906000526020600020905b81548152906001019060200180831161038c57829003601f168201915b5050505050908060010180546103be90610da4565b80601f01602080910402602001604051908101604052809291908181526020018280546103ea90610da4565b80156104375780601f1061040c57610100808354040283529160200191610437565b820191906000526020600020905b81548152906001019060200180831161041a57829003601f168201915b50505050509080600201805461044c90610da4565b80601f016020809104026020016040519081016040528092919081815260200182805461047890610da4565b80156104c55780601f1061049a576101008083540402835291602001916104c5565b820191906000526020600020905b8154815290600101906020018083116104a857829003601f168201915b5050505050908060030154905084565b607b7ff8553e29cd0cf9bfd617ab4b6f118662191f74b4e51d0dd5e7cefe39a51de88d60646040516105079190610c5e565b60405180910390a2565b60016020528060005260406000206000915090505481565b600060016000838152602001908152602001600020549050919050565b6040518060800160405280858152602001848152602001838152602001828152506000808781526020019081526020016000206000820151816000019080519060200190610595929190610721565b5060208201518160010190805190602001906105b2929190610721565b5060408201518160020190805190602001906105cf929190610721565b5060608201518160030155905050838383836040516020016105f49493929190610ad6565b604051602081830303815290604052805190602001206001600087815260200190815260200160002081905550600080600087815260200190815260200160002090508481600001908051906020019061064f929190610721565b5083816001019080519060200190610668929190610721565b506000868260000183600101846003015460405160200161068c9493929190610b5e565b604051602081830303815290604052805190602001209050867fc87dfe9ab8dae3507e0632fc69ee9b0002fac2bb6b33cc2a8d0393c19a4052ca826040516106d49190610ba4565b60405180910390a2867ff8553e29cd0cf9bfd617ab4b6f118662191f74b4e51d0dd5e7cefe39a51de88d87868660405161071093929190610c19565b60405180910390a250505050505050565b82805461072d90610da4565b90600052602060002090601f01602090048101928261074f5760008555610796565b82601f1061076857805160ff1916838001178555610796565b82800160010185558215610796579182015b8281111561079557825182559160200191906001019061077a565b5b5090506107a391906107a7565b5090565b5b808211156107c05760008160009055506001016107a8565b5090565b60006107d76107d284610cd0565b610c9f565b9050828152602081018484840111156107ef57600080fd5b6107fa848285610d62565b509392505050565b600082601f83011261081357600080fd5b81356108238482602086016107c4565b91505092915050565b60008135905061083b81610e4f565b92915050565b60006020828403121561085357600080fd5b60006108618482850161082c565b91505092915050565b600080600080600060a0868803121561088257600080fd5b60006108908882890161082c565b955050602086013567ffffffffffffffff8111156108ad57600080fd5b6108b988828901610802565b945050604086013567ffffffffffffffff8111156108d657600080fd5b6108e288828901610802565b935050606086013567ffffffffffffffff8111156108ff57600080fd5b61090b88828901610802565b925050608061091c8882890161082c565b9150509295509295909350565b61093281610d3c565b82525050565b61094181610d50565b82525050565b600061095282610d15565b61095c8185610d20565b935061096c818560208601610d71565b61097581610e3e565b840191505092915050565b600061098b82610d15565b6109958185610d31565b93506109a5818560208601610d71565b80840191505092915050565b600081546109be81610da4565b6109c88186610d31565b945060018216600081146109e357600181146109f457610a27565b60ff19831686528186019350610a27565b6109fd85610d00565b60005b83811015610a1f57815481890152600182019150602081019050610a00565b838801955050505b50505092915050565b6000610a3d600d83610d20565b91507f44756d6d79557365726e616d65000000000000000000000000000000000000006000830152602082019050919050565b6000610a7d600e83610d20565b91507f44756d6d794163636f756e744e6f0000000000000000000000000000000000006000830152602082019050919050565b610ab981610d46565b82525050565b610ad0610acb82610d46565b610dd6565b82525050565b6000610ae28287610980565b9150610aee8286610980565b9150610afa8285610980565b9150610b068284610abf565b60208201915081905095945050505050565b6000610b248287610abf565b602082019150610b348286610980565b9150610b408285610980565b9150610b4c8284610abf565b60208201915081905095945050505050565b6000610b6a8287610abf565b602082019150610b7a82866109b1565b9150610b8682856109b1565b9150610b928284610abf565b60208201915081905095945050505050565b6000602082019050610bb96000830184610929565b92915050565b60006080820190508181036000830152610bd98187610947565b90508181036020830152610bed8186610947565b90508181036040830152610c018185610947565b9050610c106060830184610ab0565b95945050505050565b60006060820190508181036000830152610c338186610947565b90508181036020830152610c478185610947565b9050610c566040830184610ab0565b949350505050565b60006060820190508181036000830152610c7781610a30565b90508181036020830152610c8a81610a70565b9050610c996040830184610938565b92915050565b6000604051905081810181811067ffffffffffffffff82111715610cc657610cc5610e0f565b5b8060405250919050565b600067ffffffffffffffff821115610ceb57610cea610e0f565b5b601f19601f8301169050602081019050919050565b60008190508160005260206000209050919050565b600081519050919050565b600082825260208201905092915050565b600081905092915050565b6000819050919050565b6000819050919050565b6000610d5b82610d46565b9050919050565b82818337600083830152505050565b60005b83811015610d8f578082015181840152602081019050610d74565b83811115610d9e576000848401525b50505050565b60006002820490506001821680610dbc57607f821691505b60208210811415610dd057610dcf610de0565b5b50919050565b6000819050919050565b7f4e487b7100000000000000000000000000000000000000000000000000000000600052602260045260246000fd5b7f4e487b7100000000000000000000000000000000000000000000000000000000600052604160045260246000fd5b6000601f19601f8301169050919050565b610e5881610d46565b8114610e6357600080fd5b5056fea264697066735822122059744774fd9b11b9a2a3c87204d22e9166e11df720b610049417bde9d813baf564736f6c63430008000033",
  "immutableReferences": {},
  "source": "// SPDX-License-Identifier: MIT\npragma solidity ^0.8.0;\n\ncontract BankingContract {\n    struct Record {\n        string username;\n        string password;\n        string accountNo;\n        uint balance;\n    }\n\n    event RecordHash(uint256 indexed recordId, bytes32 dataHash);\n    mapping(uint => Record) public records;\n    mapping(uint => bytes32) public recordHashes;\n    event RecordStored(uint indexed accountId, string username, string accountNo, uint balance);\n    //event allEvents(uint indexed accountId, string username, string accountNo, uint balance);\n    event RecordUpdated(uint indexed recordId,string username,string accountNo,uint balance);\n\n\n    function storeRecord(uint256 recordId, string memory username, string memory password, string memory accountNo, uint balance) public {\n    //require(records[accountId].balance == 0, \"Record already exists\");\n    \n    records[recordId] = Record(username, password, accountNo, balance);\n    recordHashes[recordId] = keccak256(abi.encodePacked(username, password, accountNo, balance));\n    // Retrieve the record\n    Record storage record = records[recordId];\n    // Perform update logic\n    // For example, update the username and password\n    record.username = username;\n    record.password = password;\n    // Add other update logic here...\n    // Calculate the data hash\n    bytes32 calculatedDataHash = keccak256(\n    abi.encodePacked(recordId, record.username, record.password, record.balance)\n    );\n    // Emit the event\n    emit RecordHash(recordId, calculatedDataHash);\n    emit RecordUpdated(recordId, username, accountNo, balance);\n    }\n\n\n    function updateRecord(uint256 recordId, string memory newUsername, string memory newPassword, string memory newAccountNo, uint newBalance) public {\n        //require(records[accountId].balance > 0, \"Record does not exist\");\n\n        records[recordId] = Record(newUsername,newPassword,newAccountNo,newBalance);\n\n        recordHashes[recordId] = keccak256(abi.encodePacked(newUsername, newPassword, newAccountNo, newBalance));\n        // Retrieve the record\n        Record storage record = records[recordId];\n        // Perform update logic\n        // For example, update the username and password\n        record.username = newUsername;\n        record.password = newPassword;\n        // Add other update logic here...\n\n        // Calculate the data hash\n        bytes32 calculatedDataHash = keccak256(\n            abi.encodePacked(recordId, newUsername, newPassword, newBalance)\n        );\n\n        // Emit the event\n        //triggerEventManually();\n        emit RecordHash(recordId, calculatedDataHash);\n        emit RecordUpdated(recordId, newUsername, newAccountNo, newBalance);\n\n    }\n\n    function getRecordHash(uint accountId) public view returns (bytes32) {\n        return recordHashes[accountId];\n    }\n\n    function triggerEventManually() public {\n    emit RecordUpdated(123, \"DummyUsername\", \"DummyAccountNo\", 100);\n}\n}\n",
  "sourcePath": "/Users/tejagondhi/Downloads/banking-web-app/contracts/verification.sol",
  "compiler": {
    "name": "solc",
    "version": "0.8.0+commit.c7dfd78e.Emscripten.clang"
  },
  "schemaVersion": "3.4.16",
  "updatedAt": "2023-11-22T04:07:06.725Z",
  "networkType": "ethereum",
  "devdoc": {
    "kind": "dev",
    "methods": {},
    "version": 1
  },
  "userdoc": {
    "kind": "user",
    "methods": {},
    "version": 1
  }
}