{
  "contractName": "DataIntegrityVerifier",
  "abi": [
    {
      "inputs": [],
      "stateMutability": "nonpayable",
      "type": "constructor"
    },
    {
      "anonymous": false,
      "inputs": [
        {
          "indexed": false,
          "internalType": "address",
          "name": "user",
          "type": "address"
        },
        {
          "indexed": false,
          "internalType": "bytes32",
          "name": "hash",
          "type": "bytes32"
        }
      ],
      "name": "DataStored",
      "type": "event"
    },
    {
      "anonymous": false,
      "inputs": [
        {
          "indexed": false,
          "internalType": "address",
          "name": "user",
          "type": "address"
        },
        {
          "indexed": false,
          "internalType": "bool",
          "name": "isIntegrityValid",
          "type": "bool"
        }
      ],
      "name": "DataVerified",
      "type": "event"
    },
    {
      "inputs": [],
      "name": "owner",
      "outputs": [
        {
          "internalType": "address",
          "name": "",
          "type": "address"
        }
      ],
      "stateMutability": "view",
      "type": "function",
      "constant": true
    },
    {
      "inputs": [
        {
          "internalType": "address",
          "name": "",
          "type": "address"
        }
      ],
      "name": "userDataHashes",
      "outputs": [
        {
          "internalType": "bytes32",
          "name": "",
          "type": "bytes32"
        }
      ],
      "stateMutability": "view",
      "type": "function",
      "constant": true
    },
    {
      "inputs": [
        {
          "internalType": "bytes32",
          "name": "dataHash",
          "type": "bytes32"
        }
      ],
      "name": "storeUserData",
      "outputs": [],
      "stateMutability": "nonpayable",
      "type": "function"
    },
    {
      "inputs": [
        {
          "internalType": "bytes",
          "name": "userData",
          "type": "bytes"
        }
      ],
      "name": "verifyDataIntegrity",
      "outputs": [
        {
          "internalType": "bool",
          "name": "",
          "type": "bool"
        }
      ],
      "stateMutability": "nonpayable",
      "type": "function"
    },
    {
      "inputs": [
        {
          "internalType": "address",
          "name": "newOwner",
          "type": "address"
        }
      ],
      "name": "changeOwner",
      "outputs": [],
      "stateMutability": "nonpayable",
      "type": "function"
    }
  ],
  "bytecode": "0x608060405234801561001057600080fd5b50336000806101000a81548173ffffffffffffffffffffffffffffffffffffffff021916908373ffffffffffffffffffffffffffffffffffffffff16021790555061070c806100606000396000f3fe608060405234801561001057600080fd5b50600436106100575760003560e01c80631dfa9fd81461005c5780638da5cb5b1461008c578063a6f9dae1146100aa578063f384b607146100c6578063fc11c033146100e2575b600080fd5b610076600480360381019061007191906103c7565b610112565b6040516100839190610575565b60405180910390f35b61009461012a565b6040516100a191906104ed565b60405180910390f35b6100c460048036038101906100bf91906103c7565b61014e565b005b6100e060048036038101906100db91906103f0565b61021f565b005b6100fc60048036038101906100f79190610419565b61029f565b604051610109919061055a565b60405180910390f35b60016020528060005260406000206000915090505481565b60008054906101000a900473ffffffffffffffffffffffffffffffffffffffff1681565b60008054906101000a900473ffffffffffffffffffffffffffffffffffffffff1673ffffffffffffffffffffffffffffffffffffffff163373ffffffffffffffffffffffffffffffffffffffff16146101dc576040517f08c379a00000000000000000000000000000000000000000000000000000000081526004016101d390610590565b60405180910390fd5b806000806101000a81548173ffffffffffffffffffffffffffffffffffffffff021916908373ffffffffffffffffffffffffffffffffffffffff16021790555050565b80600160003373ffffffffffffffffffffffffffffffffffffffff1673ffffffffffffffffffffffffffffffffffffffff168152602001908152602001600020819055507fa7ebd12e985dcdefed58f75386b8b8f6b785a733e5275a0ae2c4152095f58c053382604051610294929190610531565b60405180910390a150565b600080828051906020012090506000600160003373ffffffffffffffffffffffffffffffffffffffff1673ffffffffffffffffffffffffffffffffffffffff16815260200190815260200160002054821490507f40008c9471e716345c2ed00e0aa4991c99c07f24455555e19b69728864a5f0693382604051610323929190610508565b60405180910390a18092505050919050565b6000610348610343846105e1565b6105b0565b90508281526020810184848401111561036057600080fd5b61036b84828561066a565b509392505050565b600081359050610382816106a8565b92915050565b600081359050610397816106bf565b92915050565b600082601f8301126103ae57600080fd5b81356103be848260208601610335565b91505092915050565b6000602082840312156103d957600080fd5b60006103e784828501610373565b91505092915050565b60006020828403121561040257600080fd5b600061041084828501610388565b91505092915050565b60006020828403121561042b57600080fd5b600082013567ffffffffffffffff81111561044557600080fd5b6104518482850161039d565b91505092915050565b61046381610622565b82525050565b61047281610634565b82525050565b61048181610640565b82525050565b6000610494602583610611565b91507f4f6e6c7920746865206f776e65722063616e2063616c6c20746869732066756e60008301527f6374696f6e0000000000000000000000000000000000000000000000000000006020830152604082019050919050565b6000602082019050610502600083018461045a565b92915050565b600060408201905061051d600083018561045a565b61052a6020830184610469565b9392505050565b6000604082019050610546600083018561045a565b6105536020830184610478565b9392505050565b600060208201905061056f6000830184610469565b92915050565b600060208201905061058a6000830184610478565b92915050565b600060208201905081810360008301526105a981610487565b9050919050565b6000604051905081810181811067ffffffffffffffff821117156105d7576105d6610679565b5b8060405250919050565b600067ffffffffffffffff8211156105fc576105fb610679565b5b601f19601f8301169050602081019050919050565b600082825260208201905092915050565b600061062d8261064a565b9050919050565b60008115159050919050565b6000819050919050565b600073ffffffffffffffffffffffffffffffffffffffff82169050919050565b82818337600083830152505050565b7f4e487b7100000000000000000000000000000000000000000000000000000000600052604160045260246000fd5b6106b181610622565b81146106bc57600080fd5b50565b6106c881610640565b81146106d357600080fd5b5056fea26469706673582212207bf3fe532abfb24d9c9357f655ed55c86de915940db17a5164727f2d19e7811564736f6c63430008000033",
  "immutableReferences": {},
  "source": "// SPDX-License-Identifier: MIT\npragma solidity ^0.8.0;\n\ncontract DataIntegrityVerifier {\n    // State variables\n    address public owner;\n    mapping(address => bytes32) public userDataHashes;\n\n    // Events\n    event DataStored(address user, bytes32 hash);\n    event DataVerified(address user, bool isIntegrityValid);\n\n    // Modifier for restricting access to the owner\n    modifier onlyOwner() {\n        require(msg.sender == owner, \"Only the owner can call this function\");\n        _;\n    }\n\n    // Constructor to set the contract owner\n    constructor() {\n        owner = msg.sender;\n    }\n\n    // Function for users to store the hash of their data\n    function storeUserData(bytes32 dataHash) public {\n        userDataHashes[msg.sender] = dataHash;\n        emit DataStored(msg.sender, dataHash);\n    }\n\n    // Function to verify the integrity of the stored data\n    function verifyDataIntegrity(bytes memory userData) public returns (bool) {\n        bytes32 currentHash = keccak256(userData);\n        bool isIntegrityValid = currentHash == userDataHashes[msg.sender];\n        emit DataVerified(msg.sender, isIntegrityValid);\n        return isIntegrityValid;\n    }\n\n    // Function to change the contract owner (restricted to the current owner)\n    function changeOwner(address newOwner) public onlyOwner {\n        owner = newOwner;\n    }\n}\n",
  "sourcePath": "/Users/tejagondhi/Downloads/banking-web-app/contracts/verification.sol",
  "compiler": {
    "name": "solc",
    "version": "0.8.0+commit.c7dfd78e.Emscripten.clang"
  },
  "schemaVersion": "3.4.16",
  "updatedAt": "2023-11-22T04:07:06.720Z",
  "networkType": "ethereum",
  "devdoc": {
    "kind": "dev",
    "methods": {},
    "version": 1
  },
  "userdoc": {
    "kind": "user",
    "methods": {},
    "version": 1
  }
}