{
  "contractName": "HashStorage",
  "abi": [
    {
      "anonymous": false,
      "inputs": [
        {
          "indexed": true,
          "internalType": "string",
          "name": "accountNumber",
          "type": "string"
        },
        {
          "indexed": false,
          "internalType": "bytes32",
          "name": "hash",
          "type": "bytes32"
        }
      ],
      "name": "HashStored",
      "type": "event"
    },
    {
      "inputs": [
        {
          "internalType": "string",
          "name": "_accountNumber",
          "type": "string"
        },
        {
          "internalType": "bytes32",
          "name": "_hash",
          "type": "bytes32"
        }
      ],
      "name": "storeHash",
      "outputs": [],
      "stateMutability": "nonpayable",
      "type": "function"
    },
    {
      "inputs": [
        {
          "internalType": "string",
          "name": "_accountNumber",
          "type": "string"
        }
      ],
      "name": "retrieveHash",
      "outputs": [
        {
          "internalType": "bytes32",
          "name": "",
          "type": "bytes32"
        }
      ],
      "stateMutability": "view",
      "type": "function"
    }
  ],
  "bytecode": "0x608060405234801561000f575f80fd5b5061041e8061001d5f395ff3fe608060405234801561000f575f80fd5b5060043610610034575f3560e01c806330c6caa414610038578063ef2ea1b014610054575b5f80fd5b610052600480360381019061004d919061029d565b610084565b005b61006e600480360381019061006991906102f7565b6100f7565b60405161007b919061034d565b60405180910390f35b805f8360405161009491906103d2565b908152602001604051809103902081905550816040516100b491906103d2565b60405180910390207f365546d942c9391c8c34d4c12966796cfae775383651b55c21212df5023898a8826040516100eb919061034d565b60405180910390a25050565b5f808260405161010791906103d2565b9081526020016040518091039020549050919050565b5f604051905090565b5f80fd5b5f80fd5b5f80fd5b5f80fd5b5f601f19601f8301169050919050565b7f4e487b71000000000000000000000000000000000000000000000000000000005f52604160045260245ffd5b61017c82610136565b810181811067ffffffffffffffff8211171561019b5761019a610146565b5b80604052505050565b5f6101ad61011d565b90506101b98282610173565b919050565b5f67ffffffffffffffff8211156101d8576101d7610146565b5b6101e182610136565b9050602081019050919050565b828183375f83830152505050565b5f61020e610209846101be565b6101a4565b90508281526020810184848401111561022a57610229610132565b5b6102358482856101ee565b509392505050565b5f82601f8301126102515761025061012e565b5b81356102618482602086016101fc565b91505092915050565b5f819050919050565b61027c8161026a565b8114610286575f80fd5b50565b5f8135905061029781610273565b92915050565b5f80604083850312156102b3576102b2610126565b5b5f83013567ffffffffffffffff8111156102d0576102cf61012a565b5b6102dc8582860161023d565b92505060206102ed85828601610289565b9150509250929050565b5f6020828403121561030c5761030b610126565b5b5f82013567ffffffffffffffff8111156103295761032861012a565b5b6103358482850161023d565b91505092915050565b6103478161026a565b82525050565b5f6020820190506103605f83018461033e565b92915050565b5f81519050919050565b5f81905092915050565b5f5b8381101561039757808201518184015260208101905061037c565b5f8484015250505050565b5f6103ac82610366565b6103b68185610370565b93506103c681856020860161037a565b80840191505092915050565b5f6103dd82846103a2565b91508190509291505056fea2646970667358221220411262599667c720627cbe55f2feb25dd0c2534a01ef677862f88f79fe375b3264736f6c63430008170033",
  "immutableReferences": {},
  "source": "// SPDX-License-Identifier: MIT\r\npragma solidity ^0.8.0;\r\n\r\ncontract HashStorage {\r\n\r\n    mapping(string => bytes32) private hashStore;\r\n\r\n\r\n    event HashStored(string indexed accountNumber, bytes32 hash);\r\n\r\n\r\n    function storeHash(string memory _accountNumber, bytes32 _hash) public {\r\n\r\n        hashStore[_accountNumber] = _hash;\r\n\r\n\r\n        emit HashStored(_accountNumber, _hash);\r\n    }\r\n\r\n\r\n    function retrieveHash(string memory _accountNumber) public view returns (bytes32) {\r\n\r\n        return hashStore[_accountNumber];\r\n    }\r\n}\r\n",
  "sourcePath": "D:\\Databaseproject\\ethereumMomgoDB\\contracts\\StoreHash.sol",
  "compiler": {
    "name": "solc",
    "version": "0.8.23+commit.f704f362.Emscripten.clang"
  },
  "schemaVersion": "3.4.16",
  "updatedAt": "2023-11-16T04:45:28.444Z",
  "devdoc": {
    "kind": "dev",
    "methods": {},
    "version": 1
  },
  "userdoc": {
    "kind": "user",
    "methods": {},
    "version": 1
  }
}